:0400000002012D329A
:03000B00020134BB
:0C001100753D20753E20753F2002000E5A
:03000E000200E805
:20001D00AD82AE83AFF0D20010AF02C2008D828E838FF0E50812047BA20092AF227539415E
:20003D008538E060FB15388536E060FB1536E53C243DF8A639E53C04F53C7403B53C03758E
:20005D003C00745AB539057539418005E53904F5390536053780C9753A308538E060FB1516
:20007D00388536E060FB1536E53C243DF8A63AE53C04F53C7403B53C03753C007439B53A82
:20009D0005753A308005E53A04F53A0536053780C9438920758DFA759850D28ED2998537FC
:2000BD00E060FB15378536E060FB15363099FDE53B243DF98799C299E53B04F53B7403B520
:2000DD003B03753B000536053880D375080190003675F04012001D75080090003775F04049
:2000FD0012001D75080390003875F04012001D753B00753C0090003A120217858225900086
:1B011D00741202178582257525308520810200AE0201382222222202019532CF
:20013800E4F524F52575203FF52175214FF52275225FF52375236FF524F58975A882D28C01
:200158007533319000E81202178582257430B52505852081801C7431B5250585218180125D
:200178007432B5250585228180087433B52503852381D0D0D083D082D0F0D0E022C2AFC07D
:20019800E0C0F0C082C083C0D07430B52505858120801C7431B5250585812180127432B5C5
:2001B800250585812280087433B525038581237430B52502800575253080108533257431BF
:2001D800B5330575333280037533317430B52505852081801C7431B52505852181801274EE
:2001F80032B5250585228180087433B52503852381D0D0D083D082D0F0D0E0D2AF3222C22D
:20021800AFAE24E5257F00BEFF07BF00047582FF22753278E52420E00B7532304324018526
:200238002031802EE52420E10B753231432402852131801EE52420E20B75323243240485FD
:200258002231800EE52420E309753233432408852331858130853181C082C083E500C0E0F7
:20027800C0E0C0E0C0E07430B5320A75D000C0D0858120802B7431B5320A75D008C0D08553
:200298008121801C7432B5320A75D010C0D0858122800D7433B5320875D018C0D08581232B
:2002B800853081D2AF85328222C0E0C0F0C082C083C0D07430B52505858120801C7431B510
:2002D800250585812180127432B5250585812280087433B525038581237430B52505752524
:2002F8003180177431B52505752532800D7432B5250575253380037525307430B52511749F
:20031800015524FEE5257F00BE0105BF0002804A7431B5251174025524FEE5257F00BE02AF
:2003380005BF000280347432B5251174045524FEE5257F00BE0405BF0002801E7433B5257B
:200358000280030202F174085524FEE5257F00BE0805BF000280030202F17430B525058583
:200378002081801C7431B5250585218180127432B5250585228180087433B5250385238109
:20039800D0D0D083D082D0F0D0E0227430B525055324C6801C7431B525055324BD80127454
:2003B80032B5250553246380087433B525035324DF7430B5250575253180177431B525056F
:2003D800752532800D7432B5250575253380037525307430B5251174015524FEE5257F0009
:2003F800BE0105BF0002804A7431B5251174025524FEE5257F00BE0205BF000280347432B0
:20041800B5251174045524FEE5257F00BE0405BF0002801E7433B5250280030203C97408EB
:200438005524FEE5257F00BE0805BF000280030203C97430B52505852081801C7431B52503
:200458000585218180127432B5250585228180087433B52503852381D0D0D083D082D0F0DF
:03047800D0E022AF
:1B047B0020F71130F6138883A88220F509F6A8837583002280FEF280F5F02280
:00000001FF
